{
    "_format": "hh-sol-artifact-1",
    "contractName": "CrowdfundingCampaign",
    "sourceName": "contracts/CrowdfundingCampaign.sol",
    "abi": [
        {
            "anonymous": false,
            "inputs": [
                {
                    "indexed": true,
                    "internalType": "uint256",
                    "name": "campaignId",
                    "type": "uint256"
                },
                {
                    "indexed": true,
                    "internalType": "address",
                    "name": "creator",
                    "type": "address"
                },
                {
                    "indexed": false,
                    "internalType": "string",
                    "name": "title",
                    "type": "string"
                },
                {
                    "indexed": false,
                    "internalType": "uint256",
                    "name": "goal",
                    "type": "uint256"
                },
                {
                    "indexed": false,
                    "internalType": "uint256",
                    "name": "deadline",
                    "type": "uint256"
                }
            ],
            "name": "CampaignCreated",
            "type": "event"
        },
        {
            "anonymous": false,
            "inputs": [
                {
                    "indexed": true,
                    "internalType": "uint256",
                    "name": "campaignId",
                    "type": "uint256"
                },
                {
                    "indexed": false,
                    "internalType": "uint256",
                    "name": "totalRaised",
                    "type": "uint256"
                }
            ],
            "name": "CampaignFunded",
            "type": "event"
        },
        {
            "anonymous": false,
            "inputs": [
                {
                    "indexed": true,
                    "internalType": "uint256",
                    "name": "campaignId",
                    "type": "uint256"
                },
                {
                    "indexed": true,
                    "internalType": "address",
                    "name": "donor",
                    "type": "address"
                },
                {
                    "indexed": false,
                    "internalType": "uint256",
                    "name": "amount",
                    "type": "uint256"
                }
            ],
            "name": "DonationMade",
            "type": "event"
        },
        {
            "anonymous": false,
            "inputs": [
                {
                    "indexed": true,
                    "internalType": "uint256",
                    "name": "campaignId",
                    "type": "uint256"
                },
                {
                    "indexed": true,
                    "internalType": "address",
                    "name": "beneficiary",
                    "type": "address"
                },
                {
                    "indexed": false,
                    "internalType": "uint256",
                    "name": "amount",
                    "type": "uint256"
                }
            ],
            "name": "FundsWithdrawn",
            "type": "event"
        },
        {
            "inputs": [],
            "name": "campaignCount",
            "outputs": [
                {
                    "internalType": "uint256",
                    "name": "",
                    "type": "uint256"
                }
            ],
            "stateMutability": "view",
            "type": "function"
        },
        {
            "inputs": [
                {
                    "internalType": "uint256",
                    "name": "_campaignId",
                    "type": "uint256"
                }
            ],
            "name": "campaignExistsPublic",
            "outputs": [
                {
                    "internalType": "bool",
                    "name": "",
                    "type": "bool"
                }
            ],
            "stateMutability": "view",
            "type": "function"
        },
        {
            "inputs": [
                {
                    "internalType": "uint256",
                    "name": "",
                    "type": "uint256"
                }
            ],
            "name": "campaigns",
            "outputs": [
                {
                    "internalType": "uint256",
                    "name": "id",
                    "type": "uint256"
                },
                {
                    "internalType": "address",
                    "name": "creator",
                    "type": "address"
                },
                {
                    "internalType": "string",
                    "name": "title",
                    "type": "string"
                },
                {
                    "internalType": "string",
                    "name": "description",
                    "type": "string"
                },
                {
                    "internalType": "string",
                    "name": "imageUrl",
                    "type": "string"
                },
                {
                    "internalType": "uint256",
                    "name": "goal",
                    "type": "uint256"
                },
                {
                    "internalType": "uint256",
                    "name": "raised",
                    "type": "uint256"
                },
                {
                    "internalType": "uint256",
                    "name": "deadline",
                    "type": "uint256"
                },
                {
                    "internalType": "bool",
                    "name": "isActive",
                    "type": "bool"
                },
                {
                    "internalType": "bool",
                    "name": "isFunded",
                    "type": "bool"
                },
                {
                    "internalType": "string",
                    "name": "category",
                    "type": "string"
                },
                {
                    "internalType": "address",
                    "name": "beneficiary",
                    "type": "address"
                },
                {
                    "internalType": "uint256",
                    "name": "totalDonors",
                    "type": "uint256"
                }
            ],
            "stateMutability": "view",
            "type": "function"
        },
        {
            "inputs": [
                {
                    "internalType": "string",
                    "name": "_title",
                    "type": "string"
                },
                {
                    "internalType": "string",
                    "name": "_description",
                    "type": "string"
                },
                {
                    "internalType": "string",
                    "name": "_imageUrl",
                    "type": "string"
                },
                {
                    "internalType": "uint256",
                    "name": "_goal",
                    "type": "uint256"
                },
                {
                    "internalType": "uint256",
                    "name": "_deadline",
                    "type": "uint256"
                },
                {
                    "internalType": "string",
                    "name": "_category",
                    "type": "string"
                },
                {
                    "internalType": "address",
                    "name": "_beneficiary",
                    "type": "address"
                }
            ],
            "name": "createCampaign",
            "outputs": [],
            "stateMutability": "nonpayable",
            "type": "function"
        },
        {
            "inputs": [
                {
                    "internalType": "uint256",
                    "name": "_campaignId",
                    "type": "uint256"
                }
            ],
            "name": "donate",
            "outputs": [],
            "stateMutability": "payable",
            "type": "function"
        },
        {
            "inputs": [
                {
                    "internalType": "uint256",
                    "name": "_campaignId",
                    "type": "uint256"
                }
            ],
            "name": "getCampaignBasic",
            "outputs": [
                {
                    "internalType": "uint256",
                    "name": "id",
                    "type": "uint256"
                },
                {
                    "internalType": "address",
                    "name": "creator",
                    "type": "address"
                },
                {
                    "internalType": "string",
                    "name": "title",
                    "type": "string"
                },
                {
                    "internalType": "string",
                    "name": "description",
                    "type": "string"
                }
            ],
            "stateMutability": "view",
            "type": "function"
        },
        {
            "inputs": [
                {
                    "internalType": "uint256",
                    "name": "_campaignId",
                    "type": "uint256"
                }
            ],
            "name": "getCampaignCreator",
            "outputs": [
                {
                    "internalType": "address",
                    "name": "",
                    "type": "address"
                }
            ],
            "stateMutability": "view",
            "type": "function"
        },
        {
            "inputs": [
                {
                    "internalType": "uint256",
                    "name": "_campaignId",
                    "type": "uint256"
                }
            ],
            "name": "getCampaignDonors",
            "outputs": [
                {
                    "internalType": "address[]",
                    "name": "",
                    "type": "address[]"
                }
            ],
            "stateMutability": "view",
            "type": "function"
        },
        {
            "inputs": [
                {
                    "internalType": "uint256",
                    "name": "_campaignId",
                    "type": "uint256"
                }
            ],
            "name": "getCampaignMedia",
            "outputs": [
                {
                    "internalType": "string",
                    "name": "imageUrl",
                    "type": "string"
                },
                {
                    "internalType": "string",
                    "name": "category",
                    "type": "string"
                },
                {
                    "internalType": "address",
                    "name": "beneficiary",
                    "type": "address"
                }
            ],
            "stateMutability": "view",
            "type": "function"
        },
        {
            "inputs": [
                {
                    "internalType": "uint256",
                    "name": "_campaignId",
                    "type": "uint256"
                }
            ],
            "name": "getCampaignProgress",
            "outputs": [
                {
                    "internalType": "uint256",
                    "name": "",
                    "type": "uint256"
                }
            ],
            "stateMutability": "view",
            "type": "function"
        },
        {
            "inputs": [
                {
                    "internalType": "uint256",
                    "name": "_campaignId",
                    "type": "uint256"
                }
            ],
            "name": "getCampaignStats",
            "outputs": [
                {
                    "internalType": "uint256",
                    "name": "goal",
                    "type": "uint256"
                },
                {
                    "internalType": "uint256",
                    "name": "raised",
                    "type": "uint256"
                },
                {
                    "internalType": "uint256",
                    "name": "deadline",
                    "type": "uint256"
                },
                {
                    "internalType": "bool",
                    "name": "isActive",
                    "type": "bool"
                },
                {
                    "internalType": "bool",
                    "name": "isFunded",
                    "type": "bool"
                },
                {
                    "internalType": "uint256",
                    "name": "totalDonors",
                    "type": "uint256"
                }
            ],
            "stateMutability": "view",
            "type": "function"
        },
        {
            "inputs": [
                {
                    "internalType": "uint256",
                    "name": "_campaignId",
                    "type": "uint256"
                },
                {
                    "internalType": "address",
                    "name": "_donor",
                    "type": "address"
                }
            ],
            "name": "getDonationAmount",
            "outputs": [
                {
                    "internalType": "uint256",
                    "name": "",
                    "type": "uint256"
                }
            ],
            "stateMutability": "view",
            "type": "function"
        },
        {
            "inputs": [],
            "name": "getTotalCampaigns",
            "outputs": [
                {
                    "internalType": "uint256",
                    "name": "",
                    "type": "uint256"
                }
            ],
            "stateMutability": "view",
            "type": "function"
        },
        {
            "inputs": [
                {
                    "internalType": "address",
                    "name": "_user",
                    "type": "address"
                }
            ],
            "name": "getUserCampaigns",
            "outputs": [
                {
                    "internalType": "uint256[]",
                    "name": "",
                    "type": "uint256[]"
                }
            ],
            "stateMutability": "view",
            "type": "function"
        },
        {
            "inputs": [
                {
                    "internalType": "uint256",
                    "name": "_campaignId",
                    "type": "uint256"
                }
            ],
            "name": "isDeadlinePassed",
            "outputs": [
                {
                    "internalType": "bool",
                    "name": "",
                    "type": "bool"
                }
            ],
            "stateMutability": "view",
            "type": "function"
        },
        {
            "inputs": [
                {
                    "internalType": "uint256",
                    "name": "_campaignId",
                    "type": "uint256"
                }
            ],
            "name": "pauseCampaign",
            "outputs": [],
            "stateMutability": "nonpayable",
            "type": "function"
        },
        {
            "inputs": [
                {
                    "internalType": "uint256",
                    "name": "_campaignId",
                    "type": "uint256"
                }
            ],
            "name": "resumeCampaign",
            "outputs": [],
            "stateMutability": "nonpayable",
            "type": "function"
        },
        {
            "inputs": [
                {
                    "internalType": "address",
                    "name": "",
                    "type": "address"
                },
                {
                    "internalType": "uint256",
                    "name": "",
                    "type": "uint256"
                }
            ],
            "name": "userCampaigns",
            "outputs": [
                {
                    "internalType": "uint256",
                    "name": "",
                    "type": "uint256"
                }
            ],
            "stateMutability": "view",
            "type": "function"
        },
        {
            "inputs": [
                {
                    "internalType": "uint256",
                    "name": "_campaignId",
                    "type": "uint256"
                }
            ],
            "name": "withdrawFunds",
            "outputs": [],
            "stateMutability": "nonpayable",
            "type": "function"
        }
    ],
    "bytecode": "0x6080604052600436101561001257600080fd5b60003560e01c8062f7df8b1461144a578063141961bc1461132d578063155dd5ee1461114d57806315a92c5e146110f857806316f43dd41461071c57806319ac74bd146110a0578063209b7d5f14610fcd5780634c1fb753146107fd578063660bf9de146107725780636fcdc6a31461073a5780637274e30d1461071c5780638ab9b92a146106d85780638cd4a181146106425780639e3696d914610556578063a1e5084c146104a2578063de99347a14610414578063e43826d8146103a5578063f14faf6f1461018f5763f6b9fa64146100ec57600080fd5b3461018a57602036600319011261018a576004358015158061017e575b610112906116a8565b60005260016020526040600020805461017a60018060a01b036001840154169261016c61014d6003610146600285016114f6565b93016114f6565b916040519586958652602086015260806040860152608085019061159c565b90838203606085015261159c565b0390f35b50600054811115610109565b600080fd5b60208060031936011261018a5760043580151580610399575b6101b1906116a8565b80600052600182526101cd60ff600860406000200154166116f4565b80600052600182526101e86007604060002001544210611739565b3415610345578060005260018252806040600020836006820161020c348254611785565b8155600c830133600052808352604060002054156102d4575b336000528252604060002061023b348254611785565b9055546005830154811015806102c2575b610280575b50827fe555da28bdb778f65d22794d88927ebaeca03f7de9d1b7d39245bc8fb5ca078a604051923484523393a3005b60087f318daf69d77e946364e804495b2184222324b99fddeb42ab5fd25a919f596e8c930161010061ff0019825416179055604051908152a280838381610251565b5060ff600884015460081c161561024c565b600d840180549095509250600160401b83101561032f576102fd83879660018a960181556115f2565b81546001600160a01b0360039290921b91821b19163390911b179055600b8401805461032890611683565b9055610225565b634e487b7160e01b600052604160045260246000fd5b60405162461bcd60e51b815260048101839052602660248201527f446f6e6174696f6e20616d6f756e74206d75737420626520677265617465722060448201526507468616e20360d41b6064820152608490fd5b506000548111156101a8565b3461018a57604036600319011261018a576024356001600160a01b038116906004359082900361018a5780151580610408575b6103e1906116a8565b6000526001602052600c604060002001906000526020526020604060002054604051908152f35b506000548111156103d8565b3461018a57602036600319011261018a5760043580151580610496575b61043a906116a8565b80600052600160205261045e60018060a01b036001604060002001541633146117cd565b80600052600160205261047b60ff600860406000200154166116f4565b6000908152600160205260409020600801805460ff19169055005b50600054811115610431565b3461018a5760208060031936011261018a576001600160a01b036104c46115dc565b1660005260028152604060002060405190818382549182815201908192600052846000209060005b86828210610542578686610502828803836114d4565b604051928392818401908285525180915260408401929160005b82811061052b57505050500390f35b83518552869550938101939281019260010161051c565b8354855290930192600192830192016104ec565b3461018a5760208060031936011261018a576004359081151580610636575b61057e906116a8565b816000526001918282526105a260018060a01b0384604060002001541633146117cd565b806000528282526105bc6007604060002001544210611739565b8060005282825260ff600860406000200154166105f1579082916000525260086040600020019060ff19825416179055600080f35b60405162461bcd60e51b815260048101839052601a60248201527f43616d706169676e20697320616c7265616479206163746976650000000000006044820152606490fd5b50600054821115610575565b3461018a57602036600319011261018a57600435801515806106cc575b610668906116a8565b60005260016020526106b4604060002060018060a01b03600a820154166106c26106a06009610699600486016114f6565b94016114f6565b60405194859460608652606086019061159c565b90848203602086015261159c565b9060408301520390f35b5060005481111561065f565b3461018a57602036600319011261018a57602061070860043580151580610710575b610703906116a8565b611792565b604051908152f35b506000548111156106fa565b3461018a57600036600319011261018a576020600054604051908152f35b3461018a57602036600319011261018a5760206004358015159081610765575b506040519015158152f35b905060005410158261075a565b3461018a57602036600319011261018a57600435801515806107f1575b610798906116a8565b600052600160205260c0604060002060058101549060ff6006820154916007810154600b600883015492015493604051958652602086015260408501528181161515606085015260081c161515608083015260a0820152f35b5060005481111561078f565b3461018a5760e036600319011261018a5760043567ffffffffffffffff811161018a5761082e90369060040161163c565b60243567ffffffffffffffff811161018a5761084e90369060040161163c565b90604491823567ffffffffffffffff811161018a5761087190369060040161163c565b9260a43567ffffffffffffffff811161018a5761089290369060040161163c565b9360c435916001600160a01b038316830361018a57845115610f9157835115610f4d5760643515610f0957426084351115610ec5576001600160a01b03831615610e8157506108e2600054611683565b9283600055836000526001602052604060002093845560018401336bffffffffffffffffffffffff60a01b825416179055845167ffffffffffffffff811161032f57610931600286015461149a565b601f8111610e3a575b50806020601f8211600114610dcd57600091610dc2575b508160011b916000199060031b1c19161760028501555b80519067ffffffffffffffff821161032f578190610989600387015461149a565b601f8111610d6f575b50602090601f8311600114610cfd57600092610cf2575b50508160011b916000199060031b1c19161760038401555b80519067ffffffffffffffff821161032f5781906109e2600486015461149a565b601f8111610c9f575b50602090601f8311600114610c2d57600092610c22575b50508160011b916000199060031b1c19161760048301555b606435600583015560006006830155608435600783015560088201805461ffff19166001179055835167ffffffffffffffff811161032f57610a5f600984015461149a565b601f8111610bdb575b506020601f8211600114610b66579080600b949392600096978792610b5b575b50508160011b9186199060031b1c19161760098301555b600a82019060018060a01b03166bffffffffffffffffffffffff60a01b82541617905501553360005260026020526040600020600054908054600160401b81101561032f57610af3916001820181556115f2565b819291549060031b91821b91600019901b19161790556000547fdc26653af5b99b2da33e2ad69ee6600d9aeccc82b034501db4338309615ca238610b426040519360608552606085019061159c565b92606435602082015260843560408201528033940390a3005b015190508780610a88565b6009840160005260206000209560005b601f1984168110610bc357509160009596600192600b96959483601f19811610610bab575b505050811b016009830155610a9f565b0151871960f88460031b161c19169055878080610b9b565b82820151885560019097019660209283019201610b76565b600984016000526020600020601f830160051c810160208410610c1b575b601f830160051c82018110610c0f575050610a68565b60008155600101610bf9565b5080610bf9565b015190508680610a02565b9250600485016000526020600020906000935b601f1984168510610c84576001945083601f19811610610c6b575b505050811b016004830155610a1a565b015160001960f88460031b161c19169055868080610c5b565b81810151835560209485019460019093019290910190610c40565b909150600485016000526020600020601f840160051c810160208510610ceb575b90849392915b601f830160051c82018110610cdc5750506109eb565b60008155859450600101610cc6565b5080610cc0565b0151905087806109a9565b9250600386016000526020600020906000935b601f1984168510610d54576001945083601f19811610610d3b575b505050811b0160038401556109c1565b015160001960f88460031b161c19169055878080610d2b565b81810151835560209485019460019093019290910190610d10565b909150600386016000526020600020601f840160051c810160208510610dbb575b90849392915b601f830160051c82018110610dac575050610992565b60008155859450600101610d96565b5080610d90565b905086015188610951565b91506002860160005260206000206000925b601f1983168410610e22576001935082601f19811610610e09575b5050811b016002850155610968565b88015160001960f88460031b161c191690558880610dfa565b88810151825560209384019360019092019101610ddf565b600286016000526020600020601f830160051c810160208410610e7a575b601f830160051c82018110610e6e57505061093a565b60008155600101610e58565b5080610e58565b6064907f496e76616c69642062656e6566696369617279206164647265737300000000006040519162461bcd60e51b835260206004840152601b6024840152820152fd5b6064907f446561646c696e65206d75737420626520696e207468652066757475726500006040519162461bcd60e51b835260206004840152601e6024840152820152fd5b6064907f476f616c206d7573742062652067726561746572207468616e203000000000006040519162461bcd60e51b835260206004840152601b6024840152820152fd5b6064907f4465736372697074696f6e2063616e6e6f7420626520656d70747900000000006040519162461bcd60e51b835260206004840152601b6024840152820152fd5b606490745469746c652063616e6e6f7420626520656d70747960581b6040519162461bcd60e51b83526020600484015260156024840152820152fd5b3461018a5760208060031936011261018a5760043580151580611094575b610ff4906116a8565b600052600190818152600d6040600020019160405191828185549182815201908195600052826000209060005b81811061107857505050836110379103846114d4565b60405192818401908285525180915260408401949160005b82811061105c5785870386f35b83516001600160a01b031687529581019592810192840161104f565b82546001600160a01b0316845292840192918501918501611021565b50600054811115610feb565b3461018a57604036600319011261018a576110b96115dc565b6001600160a01b031660009081526002602052604090208054602435919082101561018a576020916110ea916115f2565b90546040519160031b1c8152f35b3461018a57602036600319011261018a5760043580151580611141575b61111e906116a8565b6000526001602052602060018060a01b0360016040600020015416604051908152f35b50600054811115611115565b3461018a5760208060031936011261018a5760043580151580611321575b611174906116a8565b806000526001825260406000209160018060a01b038060018501541633148015611312575b156112b657600884019384549460ff8660081c16156112785790600a916111c260ff88166116f4565b600682019660008854985560ff1916905501600080808088868654165af13d15611273573d6111f081611620565b906111fe60405192836114d4565b81526000853d92013e5b1561123c575460405194855216927ff440aec6b52895984d061d622e6edeba6210f7c3e059be920663140c084560d79190a3005b60405162461bcd60e51b815260048101849052600f60248201526e151c985b9cd9995c8819985a5b1959608a1b6044820152606490fd5b611208565b60405162461bcd60e51b815260048101859052601660248201527510d85b5c185a59db881a5cc81b9bdd08199d5b99195960521b6044820152606490fd5b60405162461bcd60e51b815260048101839052602e60248201527f4f6e6c792063726561746f72206f722062656e65666963696172792063616e2060448201526d77697468647261772066756e647360901b6064820152608490fd5b5080600a850154163314611199565b5060005481111561116b565b3461018a57602036600319011261018a57600435600052600160205260406000208054600160a01b600190039182600182015416926002820161136f906114f6565b9061137c600384016114f6565b611388600485016114f6565b906005850154916006860154600787015491600888015493600989016113ad906114f6565b96600a8a01541698600b0154976040519b8c9b8c5260208c01526101a08060408d01528b016113db9161159c565b8a810360608c01526113ec9161159c565b89810360808b01526113fd9161159c565b9360a089015260c088015260e087015260ff8116151561010087015260081c60ff1615156101208601528481036101408601526114399161159c565b916101608401526101808301520390f35b3461018a57602036600319011261018a576004358015158061148e575b611470906116a8565b60005260016020526020600760406000200154421015604051908152f35b50600054811115611467565b90600182811c921680156114ca575b60208310146114b457565b634e487b7160e01b600052602260045260246000fd5b91607f16916114a9565b90601f8019910116810190811067ffffffffffffffff82111761032f57604052565b906040519182600082549261150a8461149a565b9081845260019485811690816000146115795750600114611536575b5050611534925003836114d4565b565b9093915060005260209081600020936000915b81831061156157505061153493508201013880611526565b85548884018501529485019487945091830191611549565b91505061153494506020925060ff191682840152151560051b8201013880611526565b919082519283825260005b8481106115c8575050826000602080949584010152601f8019910116010190565b6020818301810151848301820152016115a7565b600435906001600160a01b038216820361018a57565b805482101561160a5760005260206000200190600090565b634e487b7160e01b600052603260045260246000fd5b67ffffffffffffffff811161032f57601f01601f191660200190565b81601f8201121561018a5780359061165382611620565b9261166160405194856114d4565b8284526020838301011161018a57816000926020809301838601378301015290565b60001981146116925760010190565b634e487b7160e01b600052601160045260246000fd5b156116af57565b60405162461bcd60e51b815260206004820152601760248201527f43616d706169676e20646f6573206e6f742065786973740000000000000000006044820152606490fd5b156116fb57565b60405162461bcd60e51b815260206004820152601660248201527543616d706169676e206973206e6f742061637469766560501b6044820152606490fd5b1561174057565b60405162461bcd60e51b815260206004820152601c60248201527f43616d706169676e20646561646c696e652068617320706173736564000000006044820152606490fd5b9190820180921161169257565b6000526001602052604060002060058101549081156117c65760060154606481029080820460641490151715611692570490565b5050600090565b156117d457565b60405162461bcd60e51b8152602060048201526024808201527f4f6e6c792063726561746f722063616e20706572666f726d20746869732061636044820152633a34b7b760e11b6064820152608490fdfea26469706673582212207f60a7435cb0f3b2a27a5d569e28049831b33ba3e34c8f83fd42a863e9f9eacd64736f6c63430008140033",
    "linkReferences": {},
    "deployedLinkReferences": {}
}